:020000040000fa
:10100000f83f0020891a0000371f0000a71f0000ca
:1010100000000000000000000000000000000000d0
:101020000000000000000000000000008b1700001e
:1010300000000000000000008b170000d11d000020
:101040008b1700008b1700008b1700008b17000018
:101050008b1700008b1700008b1700008b17000008
:101060008b1700008b1700008b1700008b170000f8
:101070008b1700008b1700008b1700008b170000e8
:10108000791c00008b1700008b1700008b170000e5
:101090008b1700008b1700008b1700008b170000c8
:0c10a0008b1700008b1700008b1700005e
:020000040000fa
:1010ac00f8b5c046f8bc08bc9e467047691a0000eb
:1010bc00f8b5c046f8bc08bc9e467047411a000003
:020000040000fa
:1010cc006804002028000000000000009c040020a0
:1010dc000800000000000000be0400200200000018
:1010ec0000000000000000201000000001000000c3
:1010fc0000000000000000000000000000000000e4
:10110c00bc0400200100000000000000ac04002022
:10111c000400000000000000180400205000000033
:10112c0000000000c00400206c0000000100000062
:10113c00cc040020c8040020cc04002000000000d7
:10114c002500000018000020000400000000000032
:10115c000000000000000000000000000000000083
:10116c00000000000000000000000000ef20000064
:10117c000000000000000000000000000000000063
:10118c002717000000000000000000000000000015
:10119c000000000000000000000000001000002013
:1011ac0008040000000000008c0500202000000056
:1011bc00010000000100000003000000000000001e
:1011cc000000000000000000000000000000000013
:1011dc00a4040020a404002008000000000000006b
:1011ec00b004002004000000000000002c050020ca
:1011fc00600000000100000001000000030000007e
:10120c0000000000000000000000000000000000d2
:10121c0000000000e91700000000000000000000c2
:10122c0000000000c1200000f720000000000000ba
:10123c0000000000000000000000000000000000a2
:10124c000000000000000000000000000000000092
:10125c000000000000000000ac05002004000000ad
:10126c000100000001000000b40400200800000090
:10127c0000000000900400200c00000000000000a2
:10128c000000000000000000666666666666666622
:020000040000fa
:10129c000d0a232323232323232323232323204522
:1012ac0078616d706c6520426f6f746c6f616465f2
:1012bc0072204170706c69636174696f6e202323b6
:1012cc00232323232323232323230d000d0a4170df
:1012dc00706c69636174696f6e2069732072756ece
:1012ec006e696e6720616e6420746865204c45449d
:1012fc0020697320626c696e6b696e672e0d00003d
:10130c00000000000d0a232323232323232323235c
:10131c00232320537769746368207761732070727c
:10132c0065737365642c20656e746572696e6720d5
:10133c00626f6f746c6f61646572206d6f64652091
:10134c002323232323232323232323230d000000e0
:10135c000d0a232323232323232323232323204462
:10136c006973636f6e6e6563742066726f6d207443
:10137c0068652064657669636520706f727420619e
:10138c006e64206c6f61642061206e6577206170e3
:10139c00706c69636174696f6e207573696e672018
:1013ac0070796d6466752023232323232323232341
:0813bc002323232323230d004a
:020000040000fa
:1013c400234b5a6852031b68db0c13439b029b0a92
:1013d400204a936303235375110004228b691a4234
:1013e400fcd11c491022cb681a42fcd0194a137d47
:1013f40080210b431375184b00229a611a61174b15
:10140400174a1a62190004224b681a42fcd1134b82
:10141400144a5a62190008224b681a42fcd10f4a36
:10142400d0234021d15010009031402243581a4219
:10143400fcd00a4ae4234121d1501000a3314022b8
:1014440043581a42fcd0084b084ada617047c04638
:10145400206080000010004000140040001c004088
:101464000601780006010100000800400430000075
:020000040000fa
:1014740010b51f4b1b78012b18d0022b22d0002b48
:1014840013d100f0a7fd1b4800f042fb1a4800f0fe
:10149400b1fc1a48002100f005fe00f04bfd144b8e
:1014a40001221a70164800f0a5fc10bd8223db054a
:1014b4001b6a5b02f9d40e4b02221a70114800f029
:1014c40099fcf2e7104800f095fc00f0c7fd0028f5
:1014d400fbd00e4b0e4a1a605a609a60da60bff372
:1014e4004f8f0c4b0c4ada60bff34f8fc046fde7b9
:1014f400bc040020b80b00009c120000ad1c0000ce
:10150400d8120000101300005c130000000000203b
:0c1514004d43485000ed00e00400fa05d3
:020000040000fa
:10152000002934d00123002210b488422cd3012496
:101530002407a14204d2814202d209011b01f8e72b
:10154000e400a14204d2814202d249005b00f8e7e4
:10155000884201d3401a1a434c08a04202d3001b10
:101560005c0822438c08a04202d3001b9c08224343
:10157000cc08a04202d3001bdc082243002803d081
:101580001b0901d00909e3e7100010bc704701b541
:10159000002000f0b1fd02bd0029f8d003b5fff72f
:0c15a000c1ff0ebc4243891a1847c04628
:020000040000fa
:1015ac00f0b51600040002278269436987b09b1ac4
:1015bc0003939b19029204910596019302ad3a0094
:1015cc002900206800f039fc019b984208d1a368df
:1015dc00e268a3619a18a2626361300007b0f0bda3
:1015ec0000280cda102200236168a3620a43a3616d
:1015fc0063616260022f12d06b68f61aede7019bf3
:10160c001b1a01936b68984202d9c01a0835013f26
:10161c002b681b182b606b681b1a6b60cfe71e00c6
:02162c00dbe7fa
:020000040000fa
:02162e00704703
:020000040000fa
:10163000f7b51d4f03003c68201e0dd0002221008d
:10164000100001920d68ac460d699c4509d1002a35
:1016500005d0156110310800febd2900f2e73d609c
:10166000f8e79c4506d9002802d00668b44501d2a7
:10167000080001920a00002defd10028ecd00500ef
:1016800002680169d21a1035102a05d90360eb18d7
:1016900019611900103a1a60844202d13960280099
:0c16a000dae7019b1961fae7b4040020ae
:020000040000fa
:1016ac00f8b5866a04000f001500002e0ad0a36a54
:1016bc0062699b1aab420cd22a0039002000fff75a
:1016cc006fff05e000f05cfc03003000002beed057
:1016dc00f8bd002df0d03422a256002a1bdb2b00c3
:1016ec00d2b21e00013bf95c914212d1320039009a
:1016fc002000fff755ff8642ead8bf19ae1b320017
:10170c003900606900f076fc636928009b196361fd
:0a171c00dee7002be5d12e00f1e717
:020000040000fa
:101726007fb51600c2680d0013000091591e8b414b
:10173600f31a019383680400039269460222006843
:10174600029300f06afb002808dc182208210240f8
:10175600514062680a43626004b070bd01998142db
:10176600fad2a268431ad3182364e368e263002b13
:1017760001d13000f0e7531ce3631378ad19013d46
:041786002b70f6e7e7
:020000040000fa
:02178a00fee778
:020000040000fa
:10178c0000230e4a10b513600d4a13600d4a136006
:10179c000d4a13600d4a13600d4a536213610133f5
:1017ac00936000f05ffc00f072fc0a4c0a4b9c4208
:1017bc0000d310bd08cc9847f8e7c046b004002011
:1017cc002404002020040020180400201c04002005
:0c17dc0028040020b8100000bc10000021
:020000040000fa
:1017e80070b504000d00002801d1002070bd4368c9
:1017f8009b0607d5426983699a4215d80023a362dc
:10180800a3616361e36b216c8b4204d201222068df
:10181800591a00f06afc00232364e3639d42e4d074
:10182800206800f05bfce1e70022c36a11009847da
:0c1838006369002be2d101204042d7e799
:020000040000fa
:1018440037b5144d04002b68002b0fd000f052fb69
:10185400019001a800f0b2fb0f230f3001999843c7
:1018640000f084fb00280bd000232b60002c00d157
:1018740001340f230f349c4304d10c22064b1a600d
:1018840000203ebd2000fff7d1fe0028f9d0031f41
:0c1894001c60f6e7ac050020b804002042
:020000040000fa
:1018a000f8b507000e000020002f20d000f07afad3
:1018b000002e1dd000250f4a0424072105e0108dbd
:1018c0006b00f8520135ae420cd0137e2342fcd09f
:1018d000538b0b4207d153680b40012befd0138d74
:1018e0007b55efe73500761b73425e41f0b2f8bde1
:0818f0003500f8e70008004292
:020000040000fa
:1018f80010b5124b06225a60114b1b68186800215c
:1019080000f098fb0f4b1b681868002100f092fb51
:1019180000f0fcf9fff752fd00f0bcfb00f054f9b1
:10192800fff781fe00f0affb00f0aefa00f00ef911
:1019380000f0bcfb00f096fa10bdc0460040004124
:08194800c4040020a8050020e2
:020000040000fa
:1019500070b5040016001d00022a1dd043689b06c6
:101960001ad4002908d1002d01d18025ed002800ce
:101970000830fff767ff010020236268a16013436e
:101980006360e5600a23012e01d001235b4222003f
:1019900034321370014be362002070bdad160000bd
:020000040000fa
:1019a00070b5104d04002b68002b0cd0002c12daff
:1019b0000d4a2b6812689b1a6242934208db286822
:1019c00004192c6006e000f08bf92b68002bedd198
:1019d0000120404270bd054b2a681b689b1aa34238
:1019e000eddaf5e79004002098040020940400202c
:020000040000fa
:1019f00037b56b46dd1d836a04002970002b0cd0bf
:101a00006369a26a93420fd3012229002000e36a8e
:101a10009847012805d1287805e000f0b7fa00289a
:101a2000eed0012040423ebd2200343212782878a8
:0e1a300052b29042e8d05a1c62611870f3e77f
:020000040000fa
:021a3e007047ef
:020000040000fa
:101a400010b5064c2378002b07d1054b002b02d094
:101a5000044800e000bf0123237010bd680400208b
:101a60000000000000000000044b10b5002b03d064
:101a70000349044800e000bf10bdc046000000005c
:081a80006c04002000000000ce
:020000040000fa
:101a880010b50a4b98470a4b984700f0b9f8094b2c
:101a9800ff229343084a9360084b9847084b98479e
:101aa800084b984700f0e8fafee7c0463f1a0000e6
:101ab8003f1a00000010000000ed00e08d17000044
:081ac8003f1a00003f1a000064
:020000040000fa
:101ad00070b5002818d0002918d000250c4a012420
:101ae000072605e06b00c35a13850135a94209d0ca
:101af000137e2342fcd053683340012bf2d0435d68
:101b00001385f2e7012070bd0020fce70120fae711
:041b10000008004287
:020000040000fa
:101b140070b503000d4a56681268d20714d56420c4
:101b240058430a4b9a6800280ed0013600211c0045
:101b340004e0b51aeb18c918884205d91300a26845
:101b44009a42f6d89b1af6e770bdc04610e000e052
:020000040000fa
:101b54000d4b01221a6019000b691a42fcd10a4b81
:101b6400e322d2001a6003221a732a32da6106329f
:101b74009a72064a0021116001225a721a001369ee
:101b8400002bfcd17047c046003000429c0400206a
:020000040000fa
:101b94000b004968020010b5890603d4190000f04f
:101ba4004df810bd190034310978c0b249b28142f0
:101bb40007d059699c6aa14203d24c1c5c610a702b
:0c1bc400efe711001800fff711ffeae73f
:020000040000fa
:101bd0000a4b0b4a1a600b4a9a81c02292025a6041
:101be0001a00d369002bfcd1044a136802210b436d
:101bf0001360d369002bfcd17047c0460008004237
:081c0000040110402bf6ffff68
:020000040000fa
:101c080010b50b480168002905d14368002b02d1a3
:101c180000f0ddf910bd04008368064a9bb20c345d
:101c28009b009b5842682000984780002018e9e7ed
:081c3800cc100000ec1f0000bd
:020000040000fa
:101c400013b503006a460800d9b2d1714268d205c3
:101c500005d54269541c44611170d8b216bd6b465b
:101c60000122d91d00f0e0f9002802d06b46d87996
:081c7000f4e701204042f1e716
:020000040000fa
:101c780010b50a4b5b7a002b0ed0084b987ac0b28d
:101c880033229a72064b1b68002b05d0002803d01c
:101c9800034b59681b68984710bdc0460030004286
:041ca8009c04002078
:020000040000fa
:101cac0010b50a4b18880a49fff770fc89b2002955
:101cbc0007d18223db0580221204da61034b002258
:101ccc001a80024a13880133138010bdbe04002011
:041cdc0052030000af
:020000040000fa
:101ce000074a1368002b01d1064b1360064b196895
:101cf000002901d105491960054b12681a60704727
:101d000098040020b805002094040020b8070020a3
:041d1000900400201b
:020000040000fa
:101d14008223db05802212041a60c02212041a6195
:101d2400012240215a5401315a5455323b399954b5
:101d3400002251315a542739332058540b315a5404
:021d44007047e6
:020000040000fa
:101d4600f8b5070018000b00160014005a1e934140
:101d56004e430d005b42320039001c4000f061f931
:101d6600864203d02900fff7d8fb04002000f8bd07
:020000040000fa
:101d760001000022030048318a56501e02430a70b1
:101d86005968042208001040114205d001200c3287
:0e1d96000a435a60404270471864d863fbe766
:020000040000fa
:101da400094b5b8b5b070dd0074b80221a76793a7f
:101db4005a831b7e5b0705d5034b04211a8d1a7ebb
:0c1dc4000a42fbd17047c04600080042f4
:020000040000fa
:101dd00010b5074b5868074a12689a6801329a6032
:101de0001b68002b02d0024b1b68984710bdc046f1
:081df0008404002010e000e073
:020000040000fa
:101df80010b5084c2368196800f069f80123002819
:101e080005db23680a20196800f05ff9c30f584200
:081e180010bdc046a805002022
:020000040000fa
:101e2000f7b5002516000c002f000190b74201db2a
:101e30002800febd62682168019800f03bf8013778
:061e40002d180834f2e742
:020000040000fa
:101e4600f7b5002516000c002f000190b74201db04
:101e56002800febd62682168019800f078f8013715
:061e66002d180834f2e71c
:020000040000fa
:101e6c00bff35f8f62b6064ac42189005358ff2026
:101e7c0083433f380343535080235b021360704706
:041e8c0000e100e091
:020000040000fa
:101e9000054a0023136093600449516006211160d4
:101ea000034a93601360704710e000e07fbb0000be
:041eb0008404002086
:020000040000fa
:101eb40010b503000c000020002b09d11800002ae3
:101ec40006d001212000fff7e9fc0028f9d0012009
:021ed40010bd3f
:020000040000fa
:101ed60070b50e00050000f064f83300040002003f
:101ee60001212800fff72cff001b431e98414042aa
:021ef60070bdbd
:020000040000fa
:101ef80010b5054c2368002b01d1fff7edfe034b0d
:101f080018682368c01a10bd9004002094040020ab
:020000040000fa
:101f1800002310b5934206d103201840421e904179
:0e1f28009b08c01810bdc45ccc540133f2e716
:020000040000fa
:021f3600fee7c4
:020000040000fa
:101f3800054a136802210b431360110002220b6942
:0c1f48001a42fcd17047c0460030004235
:020000040000fa
:101f540070b50d001400012801d0200070bd2100cf
:0c1f64002800fff7b3fd0028f9d0f6e7d5
:020000040000fa
:101f700003000020044a10b51468844203d11360a2
:0c1f800018611960013010bdb40400208d
:020000040000fa
:101f8c0010b50400fff7f1fe002805d1a368e26844
:0a1f9c00a36163619b18a36210bdee
:020000040000fa
:021fa600fee754
:020000040000fa
:101fa8000378002b06d003005a780133002afbd1ae
:081fb800181a70470020fce735
:020000040000fa
:101fc000006810b5002801da002010bdfff7e8fc1a
:061fd000431cfad1f8e702
:020000040000fa
:021fd600704752
:020000040000fa
:101fd800034b00229a601a6801210a431a6070476d
:041fe80010e000e025
:020000040000fa
:101fec004f200000191f0000eb200000eb20000028
:041ffc00eb200000d6
:020000040000fa
:1020000010b5002a05d00023cc5cc45401339342a0
:04201000fad110bd34
:020000040000fa
:1020140010b500f061f8024b1860586010bdc0465e
:04202400a4040020f0
:020000040000fa
:10202800c36a10b5002b01d0984710bd0068fff7b0
:042038008dfffae737
:020000040000fa
:10203c0010b580234a424a41db005200fff782fc74
:02204c0010bdc5
:020000040000fa
:10204e008a18914201d10020704700230b70013194
:02205e00f7e7a2
:020000040000fa
:10206000024b187e8007c00f7047c0460008004230
:020000040000fa
:1020700010b5fff7cfff00f030f800f02ef810bddc
:020000040000fa
:0e20800010b50020fff738fc00f01ff8fce759
:020000040000fa
:0c208e008223db05802212049a61704757
:020000040000fa
:02209a0070478d
:020000040000fa
:0c209c00014b84225a6070470040004154
:020000040000fa
:0c20a800014b1860596070479c04002038
:020000040000fa
:0c20b400014b00221a707047bc04002091
:020000040000fa
:0a20c00010b50068fff746ff10bde1
:020000040000fa
:0820ca0010b5fff7d2f910bdbb
:020000040000fa
:0820d20010b5fff75efd10bd23
:020000040000fa
:0220da0070474d
:020000040000fa
:0820dc00004870472c050020ac
:020000040000fa
:0620e4000120404270479c
:020000040000fa
:0420ea00002070471b
:020000040000fa
:0420ee000020704717
:020000040000fa
:0420f2000020704713
:020000040000fa
:0220f600704731
:020000040000fa
:0420f8007047c04627
:020000040000fa
:0200000400807a
:04400000ff00fe03bc
:020000040000fa
:0200000400807a
:0440040000fcffffbe
:00000001FF
