:020000040000fa
:10000000ff3f0020b5000000f03f0020b5000000d9
:100010008d0900208f090020000000000000000072
:1000200000000000000000000000000000000000d0
:100030000000000091090020000000000000000006
:1000400091090020910900209109002091090020c8
:1000500091090020910900209109002091090020b8
:1000600091090020910900209109002091090020a8
:100070009109002091090020910900209109002098
:100080009109002091090020910900209109002088
:100090009109002091090020910900209109002078
:1000a0009109002091090020910900209109002068
:0400b0009109002092
:020000040000fa
:1000b4000e480f490f4a531a9b08002b06d00468b8
:1000c4000c6004300431013b002bf8d10a490b4a7f
:1000d400531a9b08002b05d000240c600431013b0b
:1000e400002bf9d106488047fee700000801000014
:1000f400c4000020280d0020280d0020f80d002049
:04010400930b002039
:020000040000fa
:1001080080b500afbff34f8fc046044b044ada6096
:10011800bff34f8fc046c046fde7c04600ed00e084
:100128000400fa0590b585b002af604b1b78012238
:100138005340dbb2002b01d000f01afafb1dc3229a
:100148001a707b1d00221a70bb1dc3221a70bc1db9
:10015800574a584b1100180000f03cfb030023706d
:10016800bb1d1b78692b17d1fb1dbd221a70524b82
:1001780001221a717b1d01221a704f4b9b78402275
:100188005340dbb2791d4d4801220092042200f051
:10019800fdf900f0d6f952e0bb1d1b78e72b2cd1f6
:1001a800434b1b88012b15d8fb1daa221a707b1df7
:1001b80002221a70404b01221a713f4b9b78402251
:1001c8005340dbb2791d3d4801220092042200f021
:1001d800ddf90fe000f078f8031e08d0fc1d00f0f0
:1001e800e3f803002370344b0122da7002e0fb1db0
:1001f800ff221a7000f0a5f921e0bb1d1b783c2beb
:1002080012d1fb1dff221a702b4b01221a712a4ba7
:100218009b7840225340dbb2791d28480122009286
:10022800042200f0b3f90ae0bb1d1b78182b03d198
:10023800fb1d3c221a7002e0fb1d18221a701e4b8f
:100248001b79002b14d01e4b1a88bc1d1b4b1100a8
:10025800180000f03ffb03002370bb1d1b78e72b41
:1002680002d0fb1d18221a70134b00221a7117e0d6
:10027800114bdb78002b13d0114b1a88bc1d114b86
:100288001100180000f026fb03002370bb1d1b782b
:10029800e72b02d0fb1d18221a70074b0022da70d8
:1002a800fb1d1b781800bd4603b090bdaa0d0020a9
:1002b800ac0d0020280d0020f80d0020900d002026
:1002c800ae0d0020740d002080b584b002affb1d78
:1002d80000221a70314b1b783f221340dab2304ba0
:1002e8005a702e4b1b781a0080231a40bb1d511ed2
:1002f8008a411a70bb1d1b78002b10d0fb1d0122f0
:100308001a70274b5a78264b1a70254b5b780133a5
:10031800dbb21f221340dab2214b9a7038e0204b2f
:100328005a781f4b9b789a4210d1fb1d01221a70f4
:100338001b4b5a781a4b1a70194b5b780133dbb296
:100348001f221340dab2164b9a7021e0144b5a78e8
:10035800134b1b789a4206d1fb1d00221a70104bd2
:100368000122da7014e0fb1d00221a700c4b0122e6
:100378001a717b1d03221a70094b9b784022534047
:10038800dbb2791d074801220092042200f0fef832
:10039800fb1d1b781800bd4602b080bd280d00204b
:1003a800f80d0020900d002090b585b002affb1d20
:1003b8003c221a70424b5b78052b6ed89a00414b51
:1003c800d3181b689f4600f029f9fb1d81221a707b
:1003d80070e0fc1d00f0fbfa03002370fb1d1b7886
:1003e800812b01d1012200e002227b1d1a70364bbd
:1003f8005b78791d354801220092012200f0c6f889
:1004080058e0fb1d81221a7000f0c7f92e4b5b786b
:100418002e48002200920122002100f0b7f849e09e
:100428002b4b1b88043b9ab2fc1d2a4b1100180069
:1004380000f006fb03002370fb1d1b78812b09d1fc
:10044800214b5b782148002200920122002100f014
:100458009df82fe0fb1d1b78180000f03ff8030003
:100468001a00bb1d1a70184b5b78b91d174801227a
:100478000092052200f08af81ce0134b5b781348c1
:10048800002200920122002100f080f8124b012284
:100498001a70fb1d81221a700ce0fb1d42221a7093
:1004a800094b5b780948002200920222002100f0e3
:1004b8006df8c046fb1d1b781800bd4603b090bd03
:1004c800280d00200c0d0020f80d0020740d0020d0
:1004d800ac0d00202a0d0020a90d002080b584b0a5
:1004e80000af0200fb1d1a700f23fb1800221a70c0
:1004f800fb1d1b78db2b08d01bdc7e2b0fd018dcf8
:10050800242b07d0422b0fd013e00f23fb18012216
:100518001a700fe00f23fb1803221a700ae00f234a
:10052800fb1805221a7005e00f23fb1801221a7028
:1005380000e0c0460f23fb181b781800bd4604b026
:1005480080bd80b582b000af074b00221a80074bf0
:100558004b220021180000f0edfb03007b60c04631
:10056800bd4602b080bdc046ac0d0020280d00205d
:1005780080b500af044b1b78002b01d0fff7c0fdfe
:10058800c046bd4680bdc046a90d002080b584b0d8
:1005980000aff860b9601900fb1d1a70bb1d0a1c7a
:1005a8001a7018217b181b8802339ab20c4b1a80d8
:1005b800fb68ba1d12781a70fb680133fa1d1278ad
:1005c8001a70bb68002b07d0fb68981c7b181a8828
:1005d800bb68190000f0a4fbc046bd4604b080bd4e
:1005e800ae0d002080b582b000af78603960396800
:1005f8007b680222180000f093fb7b68981c3b681c
:1006080059683b685b781a0000f08afb3b685b78a6
:100618000233dbb21800bd4602b080bdf0b58bb026
:1006280000af2026bb193d4a12681a601c203b18ef
:1006380001221a703b1800225a703b1800229a7047
:1006480018243b1900221a703b1964225a703b196e
:1006580000229a7010217b1801221a707b1803223d
:100668005a707b183a185a6008257b1902221a70aa
:100678007b1903225a707b19ba195a603b0003226e
:100688001a703b0003225a703b003a195a607b18d3
:100698005b781a007b195b78d3189bb23a005278c2
:1006a8009b189bb208339ab21d4b1a801d4b5a787f
:1006b8001d4b1a701c4b01225a7026243b1902222a
:1006c8001a803b191a88184bd3187a181100180089
:1006d800fff788ff030019003b193a1912888a1896
:1006e8001a803b191a88104bd3187a191100180070
:1006f800fff778ff030019003b193a1912888a1886
:100708001a803b191a88084bd3183a0011001800b0
:10071800fff768ffc046bd460bb0f0bd240d0020b2
:10072800ae0d0020f80d0020740d002090b583b0a8
:1007380000affc1d4b2000f035f903002370084b77
:1007480000221a70074b00221a70fb1d1b78e72b3a
:1007580001d1812300e0c3231800bd4603b090bd3a
:10076800aa0d0020a90d002030b5002911d00023c2
:100778000022012507e0c45c2402121992b2013359
:100788009cb2a14206d91d42f5d1c45c121992b29d
:10079800f5e70a00d04380b230bd024b00221a723e
:1007a80081207047a80d0020094b5b8b5b070dd09b
:1007b800074b80221a76793a5a831b7e5b0705d548
:1007c800034b04211a8d1a7e0a42fbd17047c0469a
:1007d8000008004270b5041e58d0c320002956d026
:1007e8002b4b1b7e5b0752d5294a138d9bb2528b2c
:1007f80052071fd1dbb2562b20d0264a527ac3208b
:10080800002a44d09e2b21d0cc2b35d0214a927a75
:10081800002a04d0db43dbb21e4a002090720a880b
:100828001c48808990422cd9a3540b8801330b8033
:1008380018202ce0fff7b8ffc32028e0154b012251
:100848005a7200229a720a80182020e0114b002266
:100858005a720d88023da9b22000fff785ff65197d
:100868006a7812022b781343c01a431e98414042fb
:10087800aa239843e7300ae0064b01229a7218200f
:1008880005e0044b00225a72692000e0c32070bdc5
:1008980000080042a80d002010b50d4901220b7e6a
:1008a8001342fcd00a4901220b7e1342fcd0084bac
:1008b80018855b8be7205b0705d1054902220b7e73
:1008c8001342fcd010bdfff76fffc320f5e7c04609
:1008d8000008004270b5d646464640b582b082460a
:1008e8000e00002840d09620002904d102b060bc38
:1008f800b246a84670bd5046fff736ff0190562015
:10090800fff7caffe728f1d1b31c9846019b1b0ae1
:10091800dbb200930025002213e06b461c7918e037
:10092800cc20fff7b9ffe7281ad1e443e4b220004e
:10093800fff7b2ffe72813d10135adb22a004545cc
:100948000ed2ae42e9d0731c009c934201d05346ac
:100958009c5c562ce4d09e2ce2d0cc2ce7d1dfe76f
:100968009e20fff799ffc1e79620bfe70a4b0b4a85
:100978001a600b4a9a81c02292025a601a00d369ff
:10098800002bfcd1044a136802210b431360d3697e
:10099800002bfcd17047c0460008004204011040fb
:1009a8002bf6ffff10b503009620002b00d110bdd9
:1009b800044a9381002353729372fff7d7ffe7200d
:1009c800f5e7c046a80d0020fee7fee7fee7802316
:1009d800db05164a1a60164b802252015a60154ae6
:1009e8009a6001225242da605a78d2b25a700422ce
:1009f8001a701900033a4b781342fcd00c4b5b7801
:100a08005b070fd40a4bdb688022d2050a491160c4
:100a18000a4a1068c01a4342584140425923984331
:100a2800db30704701235b42eee7c046210001003e
:100a380000200041fcef010021000200fcff010042
:100a480070b5c64600b587b004000d0005ae022299
:100a58000100300000f064f9a378b370012b3ed098
:100a68004220022b68d1504b1b7a4220002b63d0c6
:100a7800e11c0422684600f053f9009e80235b01c4
:100a880024209e4258d34948ea1fe11d00f048f946
:100a98007408474bdc61474a1a80190001224b69e8
:100aa8001a42fcd03300300040304049891b5a5864
:100ab80004c38342fbd13e4bdc613f4a1a801900d4
:100ac80001224b691a42fcd0394bdc613b4a1a803f
:100ad800190001224b691a42fcd081202ce0032224
:100ae8002100684600f01cf9e3786a4613712579fd
:100af800557166799671a11d042202a800f010f9bb
:100b080021000a31022203a800f00af921000c3161
:100b1800042204a800f004f9db20012e10d0284b91
:100b28001b68284a1340029a934200d0db206b4688
:100b38009b89402b0bd0db2007b040bcb04670bd72
:100b48006b1e9d416d42c3382840c330e7e7049cc3
:100b58009b019c4201d0db20eee7db28ecd0124b56
:100b680001221a72124b134a9046012216498c46ea
:100b7800124e8025ad026008d86141461980596936
:100b88000a42fcd0d8616146198059690a42fcd0f2
:100b9800d8611e8059690a42fcd00134ff34ac4246
:100ba800e9d18120c8e7c046a80d0020b80d002073
:100bb8000040004141a5ffff04a5ffff40a5ffff3e
:100bc80018200041fff0ffff02a5fffffee710b568
:100bd800454b06225a608223db05802212041a60e4
:100be8001a61012240215a5401315a540022163107
:100bf8005a542739332058540b315a543b4b5968af
:100c080049031b68db0c0b439b029b0a38498b6327
:100c18004a7504328b691a42fcd135491022cb68d7
:100c28001a42fcd0324a137d80210b431375314b95
:100c380000229a611a61304b304a1a621900042264
:100c48004b681a42fcd12c4ad0234021d1501000c5
:100c58009031402243581a42fcd00424284bdc61ce
:100c6800214b84225a60fff781fe264b00221a602e
:100c78009a60254a5a601c60bff35f8f62b6234ba7
:100c88008022920512689a420dd0fff7a0fe8128b3
:100c98001ad0fff74bfd8223db05802212045a612c
:100ca800fff740fafce71a4a12689a42edd1194a4e
:100cb80012689a42e9d1184a12689a42e5d180230b
:100cc8009b0500221a60e4e78223db0580221204d8
:100cd8009a6180235b011b685a1cdad083f3088869
:100ce8000e4b1b681847d4e7004000412060800085
:100cf8000010004000140040001c004006010100e4
:100d08000008004010e000e07fbb00004d43485061
:100d180004000020080000200c000020041000003f
:100d280010b5002a05d00023cc5cc454013393428b
:100d3800fad110bd002a06d00300c9b212181970e2
:100d480001339342fbd170475e0400208a030020e0
:100d5800c6030020e4030020960300203e04002080
:040d6800470001003f
:020000040000fa
:0200000400807a
:04400000fb00fe03c0
:020000040000fa
:0200000400807a
:0440040000fcffffbe
:020000040000fa
:020000042000da
:050df8000000010000f5
:00000001FF
