:020000040000fa
:10000000ff3f0020b5000000f03f0020b5000000d9
:100010009d0b00209f0b002000000000000000004e
:1000200000000000000000000000000000000000d0
:1000300000000000a10b00200000000000000000f4
:10004000a10b0020a10b0020a10b0020a10b002080
:10005000a10b0020a10b0020a10b0020a10b002070
:10006000a10b0020a10b0020a10b0020a10b002060
:10007000a10b0020a10b0020a10b0020a10b002050
:10008000a10b0020a10b0020a10b0020a10b002040
:10009000a10b0020a10b0020a10b0020a10b002030
:1000a000a10b0020a10b0020a10b0020a10b002020
:0400b000a10b002080
:020000040000fa
:1000b4000e480f490f4a531a9b08002b06d00468b8
:1000c4000c6004300431013b002bf8d10a490b4a7f
:1000d400531a9b08002b05d000240c600431013b0b
:1000e400002bf9d106488047fee700000801000014
:1000f400c4000020700f0020700f00206c1000203e
:04010400a70d002023
:020000040000fa
:1001080080b500afbff34f8fc046044b044ada6096
:10011800bff34f8fc046c046fde7c04600ed00e084
:100128000400fa0590b585b002af664b1b78012232
:100138005340dbb2002b01d000f030fafb1dc32284
:100148001a707b1d00221a70bb1dc3221a70bc1db9
:100158005d4a5e4b1100180000f0f4fb03002370a9
:10016800bb1d1b78692b17d1fb1dbd221a70584b7c
:1001780001221a717b1d01221a70554b9b7840226f
:100188005340dbb2791d534801220092042200f04b
:1001980019fa00f0ecf95de0bb1d1b78e72b2cd1b8
:1001a800494b1b88012b15d8fb1daa221a707b1df1
:1001b80002221a70464b01221a71454b9b78402245
:1001c8005340dbb2791d434801220092042200f01b
:1001d800f9f90fe000f084f8031e08d0fc1d00f0c8
:1001e800f3f8030023703a4b0122da7002e0fb1d9a
:1001f800ff221a7000f0bbf92ce0bb1d1b783c2bca
:1002080012d1fb1dff221a70314b01221a71304b9b
:100218009b7840225340dbb2791d2e480122009280
:10022800042200f0cff915e0bb1d1b78182b03d171
:10023800fb1d3c221a700de0bb1d1b787e2b06d1de
:10024800204b00221a70fb1d3c221a7002e0fb1d95
:1002580018221a701e4b1b79002b14d01e4b1a88bb
:10026800bc1d1c4b1100180000f0e1fa03002370bc
:10027800bb1d1b78e72b02d0fb1d18221a70144bec
:1002880000221a7117e0124bdb78002b13d0124ba7
:100298001a88bc1d114b1100180000f0c8fa0300a1
:1002a8002370bb1d1b78e72b02d0fb1d18221a7088
:1002b800074b0022da70fb1d1b781800bd4603b0ff
:1002c80090bdc046f20f0020f40f0020700f0020f0
:1002d8006c100020d80f0020f60f0020bc0f002063
:1002e80080b584b002affb1d00221a70334b1b7817
:1002f8003f221340dab2324b5a70304b1b785bb254
:10030800db115bb21a0001231a40bb1d511e8a4142
:100318001a70bb1d1b78002b10d0fb1d01221a7010
:10032800274b5a78264b1a70254b5b780133dbb282
:100338001f221340dab2224b9a7038e0204b5a78c9
:100348001f4b9b789a4210d1fb1d01221a701c4b3f
:100358005a781b4b1a701a4b5b780133dbb21f2299
:100368001340dab2164b9a7021e0154b5a78144ba9
:100378001b789a4206d1fb1d00221a70104b0122ed
:10038800da7014e0fb1d00221a700d4b01221a715d
:100398007b1d03221a700a4b9b7840225340dbb224
:1003a800791d084801220092042200f00bf9fb1d78
:1003b8001b781800bd4602b080bdc046700f0020f3
:1003c8006c100020d80f002090b585b002affb1d3f
:1003d8003c221a70444b5b78052b71d89a00434b2a
:1003e800d3181b689f4600f035f9fb1d81221a704f
:1003f80073e0fc1d00f0f3fb03002370fb1d1b786a
:10040800812b01d1012200e002227b1d1a70384b9a
:100418005b78791d374801220092012200f0d2f85a
:100428005be0fb1d81221a7000f06efa304b5b789e
:100438003048002200920122002100f0c3f84ce06d
:100448002d4b1b88043b9ab2fc1d2c4b1100180045
:1004580000f0fefb03002370fb1d1b78812b09d1e4
:10046800234b5b782348002200920122002100f0f0
:10047800a9f832e0fb1d1b78180000f045f80300ce
:100488001a00bb1d1a701a4b5b78b91d1948012256
:100498000092052200f096f81fe0154b5b7815488e
:1004a800002200920122002100f08cf8144b012256
:1004b8001a70144b01221a70fb1d81221a700ce06d
:1004c800fb1d42221a700a4b5b780a4800220092f0
:1004d8000222002100f076f8c046fb1d1b781800a8
:1004e800bd4603b090bdc046700f0020500f0020dd
:1004f8006c100020bc0f0020f40f0020720f0020a9
:10050800f10f0020f20f002080b584b000af020088
:10051800fb1d1a700f23fb1800221a70fb1d1b7895
:10052800db2b08d01bdc7e2b0fd018dc242b07d04c
:10053800422b0fd013e00f23fb1801221a700fe093
:100548000f23fb1803221a700ae00f23fb18052259
:100558001a7005e00f23fb1801221a7000e0c0464c
:100568000f23fb181b781800bd4604b080bd80b56a
:1005780082b000af074b00221a80074b4b220021a4
:10058800180000f0f9fc03007b60c046bd4602b0cd
:1005980080bdc046f40f0020700f002080b500af6a
:1005a800074b1b78002b08d000f0e2fa0e2000f071
:1005b800f1fa00f0e7fafff7a3fdc046bd4680bd9b
:1005c800f10f002080b584b000aff860b960190061
:1005d800fb1d1a70bb1d0a1c1a7018217b181b887a
:1005e80002339ab20c4b1a80fb68ba1d12781a7043
:1005f800fb680133fa1d12781a70bb68002b07d00c
:10060800fb68981c7b181a88bb68190000f0aafcc4
:10061800c046bd4604b080bdf60f002080b582b04c
:1006280000af7860396039687b680222180000f0f2
:1006380099fc7b68981c3b6859683b685b781a0092
:1006480000f090fc3b685b780233dbb21800bd46d3
:1006580002b080bdf0b58fb000af534b3b63372479
:100668003b1904221a702c26bb19504a12681a60ca
:1006780028257b194e4a1188198092789a7024206f
:100688003b1800221a703b1864225a703b1800224b
:100698009a701c217b1801221a707b1803225a7049
:1006a8007b187a195a6014257b1902221a707b1953
:1006b80003225a707b19ba195a600c26bb190322f7
:1006c8001a70bb1903225a70bb193a185a603b1d9d
:1006d80004221a703b1d04225a703b1d3022ba189e
:1006e8005a607b185b781a007b195b78d3189bb229
:1006f800ba1952789b189bb23a1d52789b189ab235
:100708003b191b789bb2db189bb2d3189bb2023300
:100718009ab2284b1a80284b5a78284b1a70274bc4
:1007280001225a7034243b1902221a803b191a8874
:10073800224bd3187a1811001800fff76fff030037
:1007480019003b193a1912888a181a803b191a8815
:100758001a4bd3187a1911001800fff75fff03002e
:1007680019003b193a1912888a181a803b191a88f5
:10077800124bd318ba1911001800fff74fff0300e6
:1007880019003b193a1912888a181a803b191a88d5
:100798000a4bd3183a1d11001800fff73fffc04657
:1007a800bd460fb0f0bdc04660e31600680f0020dc
:1007b8006c0f0020f60f00206c100020bc0f0020ea
:1007c80090b583b000affc1d4b2000f083f8030008
:1007d8002370084b00221a70074b00221a70fb1d69
:1007e8001b78e72b01d1812300e0c3231800bd4605
:1007f80003b090bdf20f0020f10f002030b50029a2
:1008080011d000230022012507e0c45c240212193c
:1008180092b201339cb2a14206d91d42f5d1c45c03
:10082800121992b2f5e70a00d04380b230bd70b514
:10083800c64600b583b080460e00002846d09620f4
:1008480000293fd08c1ca5b2e4b26b461c712d0a5e
:100858005d71022101a8fff7d1ff1d4b00221a721a
:100868004c215972073999720931d9721c735d7319
:100878009873000ad8731a7452325a7401329a74ef
:10088800033ada740c240023114802194146c95c62
:10089800117225000134a4b20133dbb2b342f4d3a0
:1008a80031004046fff7aaff094a14192072ab1c11
:1008b8009bb2d318000a187203351586322301211a
:1008c800d154e72003b040bcb04670bd9620f9e78c
:1008d800f00f002002000a4b3221002058549630b5
:1008e800002a00d1704707490b68943803430b600e
:1008f800cb69002bfcd1024b9a86e720f2e7c04671
:10090800f00f002000100042024b362200219954bb
:1009180081207047f00f0020044904220b7e134207
:10092800fcd0024b986ac0b27047c0460010004223
:10093800034901220b7e1342fcd0014b9862704799
:100948000010004270b5de4656464d46444670b526
:1009580005000e00002800d102e1002900d101e1c4
:100968008221c9058022d2020b6a1342fcd082215f
:10097800c9058022d2020b6a1342fcd17a4b9846f1
:100988001c8f1b19187afff7d3ff013443461c87c5
:10099800764c0422237e1342fcd0fff7bdff1128ba
:1009a80028d0714b32229b5c022b46d0032b25d0da
:1009b800012b64d16c4b9b468223db05994680232f
:1009c800db029846da465b461c8f684901224b4693
:1009d8001b6a4046034256d10b7e1342f7d1072cbf
:1009e800f5d853461b19187afff7a2ff013453466e
:1009f8001c87e8e75c4b3222032199541824002312
:100a08009a468223db0599468023db02984657499c
:100a180004224b461b6a4046034256d10b7e1342c2
:100a2800f7d0fff779ff504b9b8e534547d9534674
:100a3800e85401339bb29a46e9e74b4b9a46822326
:100a4800db0599468023db029846d34653461c8f24
:100a58001b8e9c46454901224b461b6a4046034271
:100a680019d10b7e1342f7d16445f5d05b461b19ab
:100a7800187afff75dff01345b461c87e6e7182408
:100a880000239a4635e0384b322202219954182423
:100a980000239a462de0354b1b7e5b0705d5334c6a
:100aa800fff73aff237e5b07fad42f4b322201214e
:100ab800995400221a877e2400239a4619e02a4b6b
:100ac8003222002199546924a1e7284b1b7e5b0739
:100ad8001dd4264b1b7e5b0707d5244b9846fff792
:100ae8001bff43461b7e5b07f9d41f4b00221a8667
:100af8001a87534633801c4b32229b5c032b18d039
:100b0800200078bcb346aa46a146984670bdfff7b8
:100b180003ff154b9b8e534505d95346e8540133c3
:100b28009bb29a46d5e7104b32220021995469248a
:100b3800cfe75446023ca1b22800fff75ffe2d190b
:100b48006a7812022b781343c41a631e9c416442cc
:100b5800aa239c43e734044b322200219954cfe75f
:100b68009624cde79624cbe7f00f00200010004232
:100b7800034b00229a601a6801210a431a607047e1
:100b880010e000e0024a136801218b4313607047ac
:100b980010e000e070b503000d4a56681268d207ed
:100ba80014d50c4858430a4b9a6800280ed00136d1
:100bb80000211c0004e0b51aeb18c918884205d9b1
:100bc8001300a2689a42f6d89b1af6e770bdc04691
:100bd80010e000e080bb0000fee7fee7fee78023b0
:100be800db05164a1a60164b802252015a60154ad4
:100bf8009a6001225242da605a78d2b25a700422bc
:100c08001a701900033a4b781342fcd00c4b5b78ee
:100c18005b070fd40a4bdb688022d2050a491160b2
:100c28000a4a1068c01a434258414042592398431f
:100c3800db30704701235b42eee7c046210001002c
:100c480000200041fcef010021000200fcff010030
:100c580070b5c64600b587b004000d0005ae022287
:100c68000100300000f07ef9a378b370012b3fd06b
:100c78004220022b69d1514b36229b5c4220002b2b
:100c880063d0e11c323a684600f06cf9009e80237c
:100c98005b0124209e4258d34948ea1fe11d00f019
:100ca80061f97408474bdc61474a1a801900012230
:100cb8004b691a42fcd03300300040304049891b50
:100cc8005a5804c38342fbd13e4bdc613f4a1a8029
:100cd800190001224b691a42fcd03a4bdc613c4aac
:100ce8001a80190001224b691a42fcd081202ce09d
:100cf80003222100684600f035f9e3786a4613714b
:100d08002579557166799671a11d042202a800f013
:100d180029f921000a31022203a800f023f9210051
:100d28000c31042204a800f01df9db20012e10d09c
:100d3800284b1b68284a1340029a934200d0db20b4
:100d48006b469b89402b0bd0db2007b040bcb046dc
:100d580070bd6b1e9d416d42c3382840c330e7e724
:100d6800049c9b019c4201d0db20eee7db28ecd001
:100d7800124b362201219954124b134a90460122f4
:100d880016498c46124e8025ad026008d86141464e
:100d9800198059690a42fcd0d8616146198059699d
:100da8000a42fcd0d8611e8059690a42fcd001343d
:100db800ff34ac42e9d18120c7e7c046f00f0020dc
:100dc8002c1000200040004141a5ffff04a5ffffb3
:100dd80040a5ffff18200041fff0ffff02a5ffff1d
:100de800fee710b54e4b06225a608223db058022af
:100df80012041a601a61012250215a5401315a54be
:100e080001315a5401315a54002204315a542439b8
:100e1800382019540130195408315a54414b596833
:100e280049031b68db0c0b439b029b0a3e498b63ff
:100e38004a7504328b691a42fcd13b491022cb68af
:100e48001a42fcd0384a137d80210b431375374b67
:100e580000229a611a61364b364a1a621900042236
:100e68004b681a42fcd1324ad8234021d150100095
:100e78009831402243581a42fcd02f4b1022da6195
:100e88002e4b2f4a5a601a00d369002bfcd12b4bea
:100e98002c4a1a601a00d369002bfcd1204b8422fb
:100ea8005a60294b00221a609a60284a5a60042224
:100eb8001a60bff35f8f62b6254bd20612689a425a
:100ec8000dd0fff78cfe81281ad0fff779fc82231a
:100ed800db05802212045a61fff724f9fce71d4a5a
:100ee80012689a42edd11c4a12689a42e9d11b4a0b
:100ef80012689a42e5d180239b0500221a60e4e734
:100f08008223db05802212049a6180235b011b681f
:100f18005a1cdad083f30888114b1b681847d4e7aa
:100f28000040004120608000001000400014004094
:100f3800001c0040060101000008004000100042ab
:100f4800400002000800300010e000e07fbb000015
:100f58004d43485004000020080000200c000020e9
:100f68000410000010b5002a05d00023cc5cc4543e
:100f780001339342fad110bd002a06d00300c9b24a
:100f88001218197001339342fbd170478404002072
:100f9800aa030020e603002004040020b603002072
:0c0fa8005e040020470001000102000070
:020000040000fa
:0200000400807a
:04400000fb00fe03c0
:020000040000fa
:0200000400807a
:0440040000fcffffbe
:020000040000fa
:020000042000da
:05106c0000000100007e
:00000001FF
