:10200000F03F00200D2F0000093E00000D3E0000B3
:1020100000000000000000000000000000000000C0
:10202000000000000000000000000000FD3D000076
:102030000000000000000000FD3D00006D370000C2
:10204000FD3D0000FD3D0000FD3D0000FD3D0000A8
:10205000FD3D0000FD3D0000FD3D0000FD3D000098
:10206000FD3D0000FD3D0000FD3D0000FD3D000088
:10207000FD3D0000FD3D0000FD3D0000FD3D000078
:1020800031340000FD3D0000FD3D0000FD3D00003D
:10209000FD3D0000FD3D0000FD3D0000FD3D000058
:1020A000FD3D0000FD3D0000FD3D0000F8B5C046CF
:1020B000F8BC08BC9E4670475D2E0000F8B5C046CF
:1020C000F8BC08BC9E467047352E00007002000028
:1020D00001000000C80500000100000010060020FB
:1020E000040000000100000000000000680400205F
:1020F00028000000000000009C04002008000000F0
:1021000000000000C20400200200000000000000E7
:10211000000000201000000001000000000000008E
:10212000000000000000000000000000C0040020CB
:102130000100000000000000AC04002004000000CA
:102140000000000018040020500000000000000003
:10215000C40400206C00000001000000D004002036
:10216000CC040020D0040020000000002500000066
:102170001800002000040000000000000000000023
:10218000000000000000000000000000000000004F
:102190000000000000000000153E000000000000EC
:1021A000000000000000000000000000292B0000DB
:1021B000000000000000000000000000000000001F
:1021C00000000000000000001000002008040000D3
:1021D00000000000F00500202000000001000000C9
:1021E00001000000030000000000000000000000EB
:1021F000000000000000000000000000A404002017
:10220000A40400200800000000000000B00400202A
:102210000400000000000000300500206000000005
:1022200001000000010000000300000000000000A9
:10223000000000000000000000000000000000009E
:10224000E92B00000000000000000000000000007A
:102250006F3D0000E72D00000000000000000000BE
:10226000000000000000000000000000000000006E
:10227000000000000000000000000000000000005E
:1022800000000000B4040020040000000000000072
:102290009005002060000000010000000100000027
:1022A000030000000000000000000000000000002B
:1022B0000000000000000000E92B0000000000000A
:1022C00000000000000000006F3D0000E72D00004E
:1022D00000000000000000000000000000000000FE
:1022E00000000000000000000000000000000000EE
:1022F00000000000000000000000000014060020A4
:10230000040000000100000001000000B8040020EB
:102310000800000000000000900400200C000000F5
:10232000000000001806002004000000010000006A
:10233000000000000000000000000000F0B50D00EB
:102340001900002387B00400059310009D4207DAAE
:102350002B002200002554429D4101235B4205933E
:10236000002907DA059B0200DB4305930B000021DF
:102370005042994126002F0002900091A94200D9B5
:102380006FE002D1A04200D96BE00099029801F001
:1023900069FB29000490200001F064FB049B009974
:1023A0001B1A1A000298049301F050FB009001914F
:1023B000A94250D801D1A0424DD8009A019BA41A3D
:1023C0009D4101200021049A26002F0001F03EFBD0
:1023D000049B002B35D0019B009ADB0752081A435F
:1023E000019B00255B080393049B01249C460292F9
:1023F000039BBB4232D802D1029BB3422ED832009B
:102400003B00029E039F921BBB4192185B41121935
:102410006B4116001F0001235B429C446346002B66
:10242000E6D180197941049A04000D00300039008A
:1024300001F000FB049A01F009FB241A8D412000F1
:102440002900059B002B04D003000C0000215842FA
:10245000A14107B0F0BD00200021B9E7B6197F41C6
:10246000D9E700200021ECE70D0A232323232323AF
:10247000232323232323204578616D706C6520423C
:102480006F6F746C6F61646572204170706C69630A
:102490006174696F6E2023232323232323232323A3
:1024A00023230D000D0A4170706C69636174696FBC
:1024B0006E2069732072756E6E696E6720616E643E
:1024C00020746865204C454420697320626C696EF5
:1024D0006B696E672E0D0000000000000D0A2323BB
:1024E0002323232323232323232320537769746364
:1024F000682077617320707265737365642C206542
:102500006E746572696E6720626F6F746C6F616460
:102510006572206D6F6465202323232323232323E7
:10252000232323230D0000000D0A23232323232329
:1025300023232323232320446973636F6E6E656313
:10254000742066726F6D20746865206465766963B7
:102550006520706F727420616E64206C6F616420FE
:1025600061206E6577206170706C69636174696F5A
:102570006E207573696E672070796D6466752023AF
:1025800023232323232323232323232323230D0054
:10259000D0B5041E41D003680020002B3CD00A1E99
:1025A00045D000271E001801884238D9D80088423B
:1025B00050D8590BD804002300F094FD80274042E6
:1025C00080B2FF010221314A13688B431360D36943
:1025D000002BFCD161689081E668A068136802292D
:1025E0002DD02B4C0143234080243B4364042343E0
:1025F00013605368274C23400B4333435360234AF3
:10260000D369002BFCD1022113680B4313601F4ACE
:10261000D369002BFCD10120D0BD0020FCE7190BB1
:102620001805002300F05EFD404280B2CAE71A4A56
:10263000002711001E0018018842B7D8EFE714499F
:1026400030430B4047213B43136053688B4318438F
:102650005060D4E75800C3188B4213D830003900BB
:1026600080197941801979410B04060C07041E4337
:1026700038003100002300F035FD8027404280B251
:102680003F029FE7002700209CE7C0460008004269
:10269000FF1FFFF0B8DFFFFF006CDC02F0B50600A3
:1026A0000F0015001C0085B08B4263D801D1824217
:1026B00060D82100280001F0D5F9390000903000E1
:1026C00001F0D0F9009B21001B1A1A002800039387
:1026D00001F0BCF900900191B94245D801D1B04256
:1026E00042D8009B019C01200021039AF61AA741C1
:1026F00001F0ACF904000D00039B002B2BD0019BD3
:10270000009ADB0750081843019B5908039B9C461D
:10271000B9422CD801D1B04229D832003B00121A5C
:102720008B41012692185B410027B6185F410123B7
:102730005B429C446346002BEAD130003900039A87
:1027400001F078F9039AA4197D4106000F0001F009
:102750007DF9241A8D410A9B002B01D01E605F6019
:102760002000290005B0F0BD00240025C4E7B619FB
:102770007F41DCE700240025EDE7704710B51F4CD2
:102780002378012B18D0022B21D0002B00D010BDB4
:1027900001F0BCF91A4800F065FC1A4800F050FF3F
:1027A0000021194801F0D2FA01F020F9012317485D
:1027B000237000F045FFEAE78223DB051B6A5B021A
:1027C000E5D402231248237000F03AFFDFE71148F6
:1027D00000F036FF01F050FA0028FBD00E4B0F48F6
:1027E0000E49186059609860D960BFF34F8F0C4B49
:1027F0000C4ADA60BFF34F8FC046FDE7C0040020EB
:10280000B80B00006824000095330000A4240000E9
:10281000DC24000028250000000000204D43485023
:1028200000ED00E00400FA051B4B04215A681B6808
:102830005203DB0C13439B02184A9B0A9363002349
:10284000537593691942FCD11021144AD368194277
:10285000FCD08021137D0B4313750022104B7C3973
:102860009A611A610F4A104B136253681942FCD1E6
:10287000D0234021D020D1500A4A13581942FCD00D
:10288000E423D150E4214022064843581A42FCD0A8
:10289000064B074ADA617047206080000010004054
:1028A00000140040001C0040060101000008004028
:1028B00004300000002934D00123002210B48842E3
:1028C0002CD301242407A14204D2814202D209015F
:1028D0001B01F8E7E400A14204D2814202D2490080
:1028E0005B00F8E7884201D3401A1A434C08A04223
:1028F00002D3001B5C0822438C08A04202D3001BB9
:102900009C082243CC08A04202D3001BDC082243CF
:10291000002803D01B0901D00909E3E7100010BC0F
:10292000704701B5002001F07FFA02BD0029F8D000
:1029300003B5FFF7C1FF0EBC4243891A1847C046D2
:10294000F0B51600040002278269436987B09B1A1C
:1029500003939B19029204910596019302AD3A00EC
:102960002900206800F0A7FE019B984208D1A368C7
:10297000E268A3619A18A2626361300007B0F0BDFB
:1029800000280CDA102200236168A3620A43A361C5
:1029900063616260022F12D06B68F61AEDE7019B4B
:1029A0001B1A01936B68984202D9C01A0835013F7F
:1029B0002B681B182B606B681B1A6B60CFE71E001F
:1029C000DBE77047F7B51D4F03003C68201E0DD0B4
:1029D00000222100100001920D68AC460D699C4553
:1029E00009D1002A05D0156110310800FEBD29006B
:1029F000F2E73D60F8E79C4506D9002802D006685A
:102A0000B44501D2080001920A00002DEFD1002840
:102A1000ECD0050002680169D21A1035102A05D9D8
:102A20000360EB1819611900103A1A60844202D150
:102A300039602800DAE7019B1961FAE7B804002041
:102A4000F8B5866A04000F001500002E0AD0A36AAC
:102A500062699B1AAB420CD22A0039002000FFF7B2
:102A60006FFF05E000F06CFF03003000002BEED09C
:102A7000F8BD002DF0D03422A256002A1BDB2B001B
:102A8000D2B21E00013BF95C914212D132003900F2
:102A90002000FFF755FF8642EAD8BF19AE1B32006F
:102AA0003900606901F064F8636928009B1963616B
:102AB000DEE7002BE5D12E00F1E77047F0B5070007
:102AC0000020002F28D00722164B588B02420AD034
:102AD000802018765A831A7E520704D57C381A8DC6
:102AE0001A7E1042FBD10025002911D004240D4A82
:102AF000137E1C42FCD00723568B334208D1566804
:102B00003340012B09D0138D7B550135A942EFD1FC
:102B1000491B4B425941C8B2F0BD108D6B00F852B1
:102B2000F3E7C046000800427FB51600C2680D00FA
:102B300013000091591E8B41F31A0193836804001E
:102B40000392694602220068029300F0A1FD00286A
:102B500008DC182208210240514062680A43626082
:102B600004B070BD01998142FAD2A268431AD31809
:102B70002364E368E263002B01D13000F0E7531CCB
:102B8000E3631378AD19013D2B70F6E700230E4A7D
:102B900010B513600D4A13600D4A13600D4A13609F
:102BA0000D4A13600D4A536213610133936001F0C3
:102BB00083F8FFF706FF0A4C0A4B9C4200D310BD76
:102BC00008CC9847F8E7C046B00400202404002051
:102BD00020040020180400201C04002028040020E9
:102BE000B8200000BC20000070B504000D000028D3
:102BF00001D1002070BD43689B0607D542698369F7
:102C00009A4215D80023A362A3616361E36B216C30
:102C10008B4204D201222068591A01F003F90023E3
:102C20002364E3639D42E4D0206801F0D5F8E1E736
:102C30000022C36A110098476369002BE2D101208A
:102C40004042D7E737B5144D04002B68002B0FD056
:102C500000F0F4FD019001A800F010FF0F230F30E9
:102C60000199984300F05EFE00280BD000232B60F2
:102C7000002C00D101340F230F349C4304D10C22CB
:102C8000064B1A6000203EBD2000FFF79BFE002887
:102C9000F9D0031F1C60F6E714060020BC040020D6
:102CA0000622124B10B55A60114B00211B681868A0
:102CB00000F090FF0F4B00211B68186800F08AFF9E
:102CC00000F01AFBFFF7B0FD01F004F800F02EFB56
:102CD00001F086F800F0F8FF00F024FD00F040FA63
:102CE00001F03AF800F00CFD10BDC0460040004174
:102CF000C80400200C06002070B5040016001D005A
:102D0000022A1DD043689B061AD4002908D1002D41
:102D100001D18025ED0028000830FFF793FF010066
:102D200020236268A16013436360E5600A23012EDB
:102D300001D001235B42220034321370014BE36265
:102D4000002070BD412A000070B5104D04002B68B2
:102D5000002B0CD0002C12DA0D4A2B6812689B1A3B
:102D60006242934208DB286804192C6006E000F0F8
:102D700045FB2B68002BEDD10120404270BD054B77
:102D80002A681B689B1AA342EDDAF5E7900400203D
:102D9000980400209404002037B56B46DD1D836A3B
:102DA00004002970002B0CD06369A26A93420FD3F0
:102DB000012229002000E36A9847012805D12878DC
:102DC00005E000F0BDFD0028EED0012040423EBDF0
:102DD000220034321278287852B29042E8D05A1C3D
:102DE00062611870F3E770478D2010B5C000FFF7DF
:102DF00029FF041E14D06022002100F0E1FE094BDF
:102E0000FF22E362084B2363084BE361084B6364D2
:102E1000230034331A703433A3608023DB00E36073
:102E2000200010BD6F3D0000153E0000E92B0000A2
:102E3000292B000010B5064C2378002B07D1054B39
:102E4000002B02D0044800E000BF0123237010BD16
:102E5000680400200000000000000000044B10B5D2
:102E6000002B03D00349044800E000BF10BDC0465A
:102E7000000000006C04002000000000030010B5FA
:102E8000EFF3108172B6BFF35F8F0020002B0DDBD4
:102E90001F220B4C1A4020680123D0401840934059
:102EA0008022A350BFF34F8FBFF36F8F002903D150
:102EB000BFF35F8F62B610BD72B6BFF35F8FFAE7E4
:102EC00000E100E082231B0470B59C461F254209E7
:102ED00005406244D2016C081419230030330E00FF
:102EE0001978C9B2C0070DD5F02336019943314393
:102EF000C9B2303421700121531940331A780A4382
:102F00001A7070BD0F2399433143F1E710B50A4B96
:102F100098470A4B984700F0B7F9094BFF229343B3
:102F2000084A9360084B9847084B9847084B9847C6
:102F300000F0BAFEFEE7C046053E0000053E000078
:102F40000020000000ED00E08D2B0000053E000099
:102F5000053E0000002B15D1002A13D1002906DB05
:102F600001DC002806D00020C043410802E0802197
:102F70000906002007B4024801A14018029003BDD1
:102F8000A90E000003B4684601B5029800F098FA53
:102F9000019B9E4602B00CBC7047C04670B5040051
:102FA0000D00002801D1002070BD43689B0609D4A4
:102FB0000023A362A36163619D42F4D0206800F006
:102FC0000BFFF1E7426983699A42F1D90022C36A93
:102FD000110098476369002BEAD101204042E3E7E2
:102FE000F7B5040C0D0091B20F0061438C4606004A
:102FF000019383B2100C5F43444358433B0C60443D
:103000001B18994202D9802149026418019955433D
:103010007143180C04191B04BFB24919D8190919B6
:1030200003B0F0BD70B5002817D0002500290ED0E0
:1030300001240B4A137E1C42FCD007235668334000
:10304000012B06D0435D13850135A942F2D1012041
:1030500070BD6B00C35A1385F6E70020F8E7C04641
:103060000008004270B50D4C66682368DB0714D574
:103070000B4BA268584300280FD00021013603E013
:103080009B1AC918884208D91300A2689342F7D244
:10309000B51AEB18C9188842F6D870BD10E000E0E8
:1030A00080BB000030B5002817D002000C4C103A4D
:1030B0002168002912D015680B684019814206D199
:1030C000096910335B1911611360226005E0103348
:1030D000C818824202D1ED180D6030BD1161F4E7CD
:1030E000B8040020002B11D1002A0FD1002900D1F3
:1030F000002802D00021C943080007B4024802A1F9
:103100004018029003BDC046210D000003B468467C
:1031100001B50298FFF7C2FA019B9E4602B00CBCB3
:103120007047C04670B50D4C66682368DB0714D540
:1031300043001818A26800010FD00021013603E0F7
:103140009B1AC918884208D91300A2689342F7D283
:10315000B51AEB18C9188842F6D870BD10E000E027
:10316000012301220B490B6010000B6918401A4221
:10317000FAD1E323DB000B6003230B732A33CB610B
:1031800006338B72044B18604A72024A1369002B93
:10319000FCD17047003000429C040020436870B5A9
:1031A0000400D80512D52569954200D91500002DD7
:1031B0000BD02A00606900F0DBFC22696369521BB6
:1031C000226100225B1963611A7070BDDB06FCD4BA
:1031D000200000F0EBFCF8E70B004968020010B596
:1031E000890603D4190000F06BF810BD19003431C2
:1031F0000978C0B249B2814207D059699C6AA1429C
:1032000003D24C1C5C610A70EFE711001800FFF755
:10321000C3FDEAE71C2101231B04984201D3000CE3
:1032200010391B0A984201D3000A08391B09984239
:1032300001D30009043902A2105C40187047C0464F
:10324000040302020101010100000000000000006F
:103250000A4B0200CB18002010B5C02B0DD80C0073
:103260000B004034501A1A5804C3A342FBD101206A
:10327000034B044A4908D9611A8010BD00C07FFF82
:103280000040004106A5FFFF10B50B48016800296A
:1032900005D14368002B02D1FFF76FFA10BD04007F
:1032A0008368064A9BB20C349B009B5842682000FE
:1032B000984780002018E9E7DC2000005C3B000014
:1032C00013B503006A460800D9B2D1714268D2052D
:1032D00005D54269541C44611170D8B216BD6B46C5
:1032E0000122D91D00F062FC002802D06B46D8797B
:1032F000F4E701204042F1E782238022DB0512043B
:103300001A60C02212041A61402101225A5401316C
:103310005A5455323B3999540022332051315A5472
:10332000273958540B315A547047C046094A0A4B42
:1033300013600A4B9381C0239B025360D369002B17
:10334000FCD1022113680B431360024AD369002B9E
:10335000FCD1704700080042040110402BF6FFFF2B
:10336000072210000A4B598B08400A4200D17047CF
:10337000598B0A42FBD0802119765A831A7E520754
:10338000F5D57C391A8D1A7E1142FBD1EFE7C04684
:103390000008004270B50A4D0A492C882000FFF74A
:1033A000C5FA89B2002903D00134A4B22C8070BDC3
:1033B00082238022DB0512040124DA61F6E7C0468D
:1033C000C20400205203000010B500F0A8F8084B1A
:1033D0000021186800F0E0FB064B0021186800F09F
:1033E000DBFB054B0021186800F0D6FB10BDC04682
:1033F000C4040020A8040020B4040020074A136875
:10340000002B01D1064B1360064B1968002901D12E
:1034100005491960054B12681A607047980400202E
:1034200020060020940400202008002090040020A2
:1034300010B5094B5A7A002A0CD03322987A9A7226
:10344000064BC0B21A68002A04D0002802D059687E
:103450001B68984710BDC046003000429C04002005
:10346000F8B5070018000B00160014005A1E93410F
:103470004E430D005B42320039001C4000F096FBC9
:10348000864203D02900FFF715FA04002000F8BD9A
:1034900010B53820FFF7D6FB041E0BD038220021D0
:1034A00000F08EFB044BFF22E362044B23632300F6
:1034B00034331A70200010BD6F3D0000E72D00006E
:1034C000F7B517001E0004000D00FEF737FF0200DD
:1034D0000B000090019138003100FFF781FD241AA4
:1034E0008D41089B009801991C605D6003B0F0BDA0
:1034F00001000022030048318A56501E02430A7020
:103500005968042208001040114205D001200C32F5
:103510000A435A60404270471864D863FBE770471B
:10352000084943088022CB610023D20390425B41CB
:1035300018225B421340044A0120944663440B80E6
:103540007047C0460040004104A50000074A030040
:103550008118802200205200914205D8044A5B085D
:10356000D361044B013013807047C04600C07FFF19
:103570000040004105A5FFFF10B50C000B004034D2
:10358000401A1A5804C3A342FBD1034B034A49080B
:103590000120D9611A8010BD004000411CA5FFFF29
:1035A00010B50C000B004034401A1A5804C3A34253
:1035B000FBD1034B034A49080120D9611A8010BD91
:1035C0000040004104A5FFFF1C21084B82B01A8B6C
:1035D00011406A46D180D088198B0143198302219A
:1035E0005961D08880B202B07047C04600400041A7
:1035F00070B500230125022641600A00DA40154219
:1036000005D0C418403422783243D2B2227001333C
:10361000202BF2D170BDC04670B50D0014000128FA
:1036200001D0200070BD21002800FFF7FBFC00281E
:10363000F7D121002800FFF7F5FC0028F3D0F0E7D0
:1036400010B5084C2368196800F0C6F8012300285B
:1036500005DB23680A20196800F0A6FBC30F584257
:1036600010BDC0460C06002030B544680022A307F8
:1036700002D4026CC36BD21A45698369E81A8218B6
:103680000A600020640602D5AB429B41584230BD1F
:10369000F7B5002516000C002F000190B74201DBA2
:1036A0002800FEBD62682168019800F0B7F8013774
:1036B0002D180834F2E7F7B5002516000C002F008E
:1036C0000190B74201DB2800FEBD626821680198C5
:1036D000FFF7A2FF01372D180834F2E71E1819185A
:1036E0001C182C1834182E182B182D1826182818CA
:1036F0003718031811184018381830180718000028
:10370000BFF35F8F62B6C421FF20054A890053587A
:1037100083433F380343535080235B021360704759
:1037200000E100E00023054A054913609360516001
:1037300006211160034A93601360704710E000E0B7
:103740007FBB000084040020074B10B59B68040079
:1037500003604B015B1A9B005918C800FA218900CD
:10376000FFF7A8F8606010BD84040020064B074AEC
:10377000586812689A6810B501329A601A68002A6F
:1037800001D01B68984710BD8404002010E000E0C1
:103790008021074A53790B4353717C3913691942CD
:1037A000FCD1034A53791F2BFCD850697047C0469F
:1037B000003000421E1819181C182C1834182E1826
:1037C0002B182D1826182818371803181118401808
:1037D000381830180718000070B50E00050000F00A
:1037E0001DF933000400020001212800FFF738FE14
:1037F000001B431E9841404270BD7047822109045E
:103800008C461F220121430963440240DB019B18BF
:1038100040331A788A431A707047C04610B50023A7
:103820000C00002808D1002A06D001212000FFF753
:1038300045F90028F9D00123180010BD10B5054C3A
:103840002368002B01D1FFF7D9FD034B18682368CB
:10385000C01A10BD9004002094040020002310B56D
:10386000934206D103201840421E90419B08C01885
:1038700010BDC45CCC540133F2E7FFFF002907D030
:10388000002805DB1F22012302409340014A1360F8
:103890007047C04600E100E00223054A11680B4270
:1038A00005D111680B431360D369002BFCD170471D
:1038B000000800420223054A11680B4205D0116836
:1038C00099431160D369002BFCD170470008004276
:1038D000044A054953680B405360D369002BFCD15F
:1038E0007047C04600080042FFFFFEFF044A05493A
:1038F00053680B405360D369002BFCD17047C0461E
:1039000000080042FFFFFDFF0121054B1A688A43B2
:103910001A6000229A601A680A431A607047C0460B
:1039200010E000E003000020044A10B5146884424F
:1039300003D1136018611960013010BDB804002074
:1039400010B50400FFF7D4FD002805D1A368E26894
:10395000A36163619B18A36210BD4269836910B5BE
:10396000D41A0C6041680020490602D593429B415D
:10397000584210BD034B044A4008D86101201A8008
:103980007047C046004000411AA5FFFF034B044AA0
:103990004008D86101201A807047C04600400041AD
:1039A00002A5FFFF8023044A5B0251680B4353606A
:1039B000D369002BFCD17047000800428023044AE1
:1039C0009B0251680B435360D369002BFCD17047B5
:1039D00000080042044B02689B689B1A4268002062
:1039E00093424041C0B27047840400200221044A3F
:1039F00013680B43136013691942FCD17047C0462A
:103A0000003000420221044A13688B43136013699B
:103A10001942FCD17047C046003000420378002BA9
:103A200006D003005A780133002AFBD1181A7047D8
:103A30000020FCE7D0400B00D1409C46203AD34008
:103A40001843524263469340184370479140030025
:103A500090409C46203A9340194352426346D340DB
:103A60001943704710B5002903D1FFF7D3FB20306D
:103A700002E00800FFF7CEFB10BDC046006810B59D
:103A8000002801DA002010BDFFF75EF9431CFAD1CF
:103A9000F8E7FFFFEFF3108072B6BFF35F8F43428A
:103AA0005841C0B27047C046002803D0BFF35F8FB3
:103AB00062B6704772B6BFF35F8FFAE70A00401A2A
:103AC00040320B5808C19142FBD101207047C046DB
:103AD000024B034A4008D8611A80704700400041F9
:103AE00040A5FFFF024B034A4008D8611A80704787
:103AF0000040004141A5FFFF0121034A137E194206
:103B0000FCD080B2108570470008004200220121DD
:103B1000024B9A601A680A431A60704710E000E08E
:103B2000034A4001C0B250711369002BFCD17047A9
:103B3000003000421021034A506113691942FCD140
:103B40007047C046003000424021034AD0611369EB
:103B50001942FCD17047C04600300042E73B0000EC
:103B60005D380000113E0000113E0000113E0000D3
:103B700010B5002A05D00023CC5CC4540133934215
:103B8000FAD110BD10B500F017F9024B186058605B
:103B900010BDC046A4040020030010B5002804D0C6
:103BA000C269101E01D01800904710BDC36A10B53D
:103BB000002B01D0984710BD0068FFF72DFDFAE7F4
:103BC000002A06D00300C9B21218197001339342BB
:103BD000FBD1704710B580234A424A41DB005200B6
:103BE000FFF78AF810BD8A18914201D10020704772
:103BF00000230B700131F7E7014B024A1A8070472E
:103C00000040004146A5FFFF0B0010B511001A004F
:103C1000FFF7AEFF012010BD0B0010B511001A0018
:103C2000FFF7A6FF012010BD0120024B5B699843FE
:103C30007047C046004000410320024B5A691040C3
:103C40005861704700400041014B024A1A8070479A
:103C50000040004145A5FFFF014B024A1A80704712
:103C6000004000417FA5FFFF0120024B1B7E184052
:103C70007047C04600080042024B187E8007C00F04
:103C80007047C04600080042024B187E4007C00F34
:103C90007047C046000800420121024A13688B4366
:103CA0001360704710E000E0002010B5FEF7F8FF49
:103CB00000F072F8FCE7C04610B5FFF763FFFEF7AF
:103CC000FCFEFEF7FAFE10BD82238022DB05120403
:103CD0009A6170478422014B5A607047004000414E
:103CE00003695A401140594001617047014B188DDA
:103CF00080B2704700080042014B0138586070479D
:103D000010E000E0014B58687047C04610E000E04A
:103D1000014B98687047C04610E000E0014B98687E
:103D20007047C04684040020014B9B6803607047C5
:103D300084040020014B18605960704784040020FF
:103D4000014BD8697047C04600300042014B1860F3
:103D5000596070479C0400200022014B1A70704784
:103D6000C004002010B50068FFF756FC10BD10B568
:103D70000068FFF751FC10BDBFF35F8F62B670475C
:103D800000487047006CDC0200487047006CDC02A1
:103D9000004870471BB7000010B5FEF7EFFC10BDE0
:103DA00000487047F005002010B5FFF715FA10BD68
:103DB00000487047300500200048704790050020FB
:103DC00010B5FFF711F810BD10B5036B984710BD83
:103DD00010B5FFF749FC10BD012040427047FFFFBE
:103DE0007047C046006A704700697047816170473C
:103DF00041617047C161704781607047FEE7C0460E
:103E0000FEE7C0467047C046FEE7C046FEE7C04634
:103E10000020704700207047002070470020704746
:103E200000207047002070477047C046FFFFFFFF2B
:103E3000FFFFFFFFFFFFFFFFFFFFFFFFFFFFFFFF92
:103E4000FFFFFFFFFFFFFFFFFFFFFFFFFFFFFFFF82
:103E5000FFFFFFFFFFFFFFFFFFFFFFFFFFFFFFFF72
:103E6000FFFFFFFFFFFFFFFFFFFFFFFFFFFFFFFF62
:020000040001F9
:100FE000FFFFFFFFFFFFFFFFFFFFFFFF000000000D
:100FF00000010000FB0F0100002000004BFE9E7866
:0200000400807A
:08400000FF00FE0300FCFFFFBE
:00000001FF
